{
  "contractName": "Lot",
  "abi": [
    {
      "inputs": [],
      "stateMutability": "nonpayable",
      "type": "constructor"
    },
    {
      "anonymous": false,
      "inputs": [
        {
          "indexed": false,
          "internalType": "uint256",
          "name": "_soldBoxes",
          "type": "uint256"
        },
        {
          "indexed": false,
          "internalType": "address",
          "name": "newownerID",
          "type": "address"
        }
      ],
      "name": "boxesSold",
      "type": "event"
    },
    {
      "anonymous": false,
      "inputs": [
        {
          "indexed": false,
          "internalType": "address",
          "name": "manufacturer",
          "type": "address"
        }
      ],
      "name": "imageuploaded",
      "type": "event"
    },
    {
      "anonymous": false,
      "inputs": [
        {
          "indexed": false,
          "internalType": "address",
          "name": "manufacturer",
          "type": "address"
        }
      ],
      "name": "lotManufactured",
      "type": "event"
    },
    {
      "anonymous": false,
      "inputs": [
        {
          "indexed": false,
          "internalType": "string",
          "name": "_lotName",
          "type": "string"
        },
        {
          "indexed": false,
          "internalType": "uint256",
          "name": "_numBoxes",
          "type": "uint256"
        },
        {
          "indexed": false,
          "internalType": "uint256",
          "name": "_lotPrice",
          "type": "uint256"
        },
        {
          "indexed": false,
          "internalType": "uint256",
          "name": "_boxPrice",
          "type": "uint256"
        }
      ],
      "name": "lotSale",
      "type": "event"
    },
    {
      "anonymous": false,
      "inputs": [
        {
          "indexed": false,
          "internalType": "address",
          "name": "newownerID",
          "type": "address"
        }
      ],
      "name": "lotSold",
      "type": "event"
    },
    {
      "anonymous": false,
      "inputs": [
        {
          "indexed": false,
          "internalType": "address",
          "name": "oldownerID",
          "type": "address"
        },
        {
          "indexed": false,
          "internalType": "address",
          "name": "newownerID",
          "type": "address"
        }
      ],
      "name": "newOwner",
      "type": "event"
    },
    {
      "inputs": [
        {
          "internalType": "address",
          "name": "",
          "type": "address"
        }
      ],
      "name": "boxesPatient",
      "outputs": [
        {
          "internalType": "uint256",
          "name": "",
          "type": "uint256"
        }
      ],
      "stateMutability": "view",
      "type": "function"
    },
    {
      "inputs": [],
      "name": "currentOwner",
      "outputs": [
        {
          "internalType": "address",
          "name": "_currentOwner",
          "type": "address"
        }
      ],
      "stateMutability": "view",
      "type": "function"
    },
    {
      "inputs": [
        {
          "internalType": "address",
          "name": "user",
          "type": "address"
        }
      ],
      "name": "manufacturerAddress",
      "outputs": [],
      "stateMutability": "nonpayable",
      "type": "function"
    },
    {
      "inputs": [
        {
          "internalType": "address",
          "name": "user",
          "type": "address"
        }
      ],
      "name": "distributorAddress",
      "outputs": [],
      "stateMutability": "nonpayable",
      "type": "function"
    },
    {
      "inputs": [
        {
          "internalType": "address",
          "name": "user",
          "type": "address"
        }
      ],
      "name": "pharmacyAddress",
      "outputs": [],
      "stateMutability": "nonpayable",
      "type": "function"
    },
    {
      "inputs": [
        {
          "internalType": "string",
          "name": "_lotName",
          "type": "string"
        },
        {
          "internalType": "uint256",
          "name": "_lotPrice",
          "type": "uint256"
        },
        {
          "internalType": "uint256",
          "name": "_numBoxes",
          "type": "uint256"
        },
        {
          "internalType": "uint256",
          "name": "_boxPrice",
          "type": "uint256"
        }
      ],
      "name": "lotDetails",
      "outputs": [],
      "stateMutability": "nonpayable",
      "type": "function"
    },
    {
      "inputs": [
        {
          "internalType": "string",
          "name": "_ipfsHash",
          "type": "string"
        }
      ],
      "name": "uploadLotImage",
      "outputs": [
        {
          "internalType": "bool",
          "name": "_success",
          "type": "bool"
        }
      ],
      "stateMutability": "nonpayable",
      "type": "function"
    },
    {
      "inputs": [],
      "name": "grantSale",
      "outputs": [],
      "stateMutability": "nonpayable",
      "type": "function"
    },
    {
      "inputs": [],
      "name": "buyLot",
      "outputs": [],
      "stateMutability": "payable",
      "type": "function"
    },
    {
      "inputs": [
        {
          "internalType": "uint256",
          "name": "numboxes2buy",
          "type": "uint256"
        }
      ],
      "name": "buyBox",
      "outputs": [],
      "stateMutability": "payable",
      "type": "function"
    },
    {
      "inputs": [],
      "name": "viewLot",
      "outputs": [
        {
          "components": [
            {
              "internalType": "string",
              "name": "lotName",
              "type": "string"
            },
            {
              "internalType": "uint256",
              "name": "numBoxes",
              "type": "uint256"
            },
            {
              "internalType": "uint256",
              "name": "lotPrice",
              "type": "uint256"
            },
            {
              "internalType": "uint256",
              "name": "boxPrice",
              "type": "uint256"
            }
          ],
          "internalType": "struct Lot.lotdata",
          "name": "",
          "type": "tuple"
        }
      ],
      "stateMutability": "view",
      "type": "function"
    },
    {
      "inputs": [
        {
          "internalType": "address",
          "name": "_account",
          "type": "address"
        }
      ],
      "name": "viewBox",
      "outputs": [
        {
          "internalType": "uint256",
          "name": "_boxesPatient",
          "type": "uint256"
        }
      ],
      "stateMutability": "view",
      "type": "function"
    }
  ],
  "bytecode": "0x60806040523480156200001157600080fd5b5033600360006101000a81548173ffffffffffffffffffffffffffffffffffffffff021916908373ffffffffffffffffffffffffffffffffffffffff1602179055507ff2c0d168bd136fe68a71ccac22bbe4c7276800e64533d1d1e24fcea5af07bc856000600360009054906101000a900473ffffffffffffffffffffffffffffffffffffffff16604051620000a992919062000167565b60405180910390a162000194565b600073ffffffffffffffffffffffffffffffffffffffff82169050919050565b6000620000e482620000b7565b9050919050565b620000f681620000d7565b82525050565b6000819050919050565b600062000127620001216200011b84620000b7565b620000fc565b620000b7565b9050919050565b60006200013b8262000106565b9050919050565b60006200014f826200012e565b9050919050565b620001618162000142565b82525050565b60006040820190506200017e6000830185620000eb565b6200018d602083018462000156565b9392505050565b6117a480620001a46000396000f3fe6080604052600436106100a75760003560e01c806366d953641161006457806366d95364146101ab5780636f896e1e146101b557806397490264146101e0578063a4d4cd391461021d578063b387ef9214610246578063ecefc03d14610271576100a7565b806306191977146100ac5780632ad5778b146100e95780633e049343146101005780633f82217d1461011c578063427f74d014610145578063471ca7371461016e575b600080fd5b3480156100b857600080fd5b506100d360048036038101906100ce9190610ead565b61029a565b6040516100e09190610ef3565b60405180910390f35b3480156100f557600080fd5b506100fe6102e3565b005b61011a60048036038101906101159190610f3a565b6103e0565b005b34801561012857600080fd5b50610143600480360381019061013e9190610fcc565b6105bd565b005b34801561015157600080fd5b5061016c60048036038101906101679190610ead565b610683565b005b34801561017a57600080fd5b5061019560048036038101906101909190611054565b61076d565b6040516101a291906110bc565b60405180910390f35b6101b3610827565b005b3480156101c157600080fd5b506101ca610a99565b6040516101d791906111e2565b60405180910390f35b3480156101ec57600080fd5b5061020760048036038101906102029190610ead565b610b63565b6040516102149190610ef3565b60405180910390f35b34801561022957600080fd5b50610244600480360381019061023f9190610ead565b610b7b565b005b34801561025257600080fd5b5061025b610c66565b6040516102689190611213565b60405180910390f35b34801561027d57600080fd5b5061029860048036038101906102939190610ead565b610c90565b005b6000600460008373ffffffffffffffffffffffffffffffffffffffff1673ffffffffffffffffffffffffffffffffffffffff168152602001908152602001600020549050919050565b6000803373ffffffffffffffffffffffffffffffffffffffff1673ffffffffffffffffffffffffffffffffffffffff16815260200190815260200160002060009054906101000a900460ff1661033857600080fd5b600160003373ffffffffffffffffffffffffffffffffffffffff1673ffffffffffffffffffffffffffffffffffffffff16815260200190815260200160002060009054906101000a900460ff1661038e57600080fd5b7f15a51b79663b36aa87b7e256eddbad58070b43d374c4294e41b9e76ad43a4c0460066000016006600101546006600201546006600301546040516103d69493929190611334565b60405180910390a1565b60003390506000600360009054906101000a900473ffffffffffffffffffffffffffffffffffffffff169050600660010154831115610454576040517f08c379a000000000000000000000000000000000000000000000000000000000815260040161044b906113f2565b60405180910390fd5b826006600301546104659190611441565b34146104a6576040517f08c379a000000000000000000000000000000000000000000000000000000000815260040161049d906114e7565b60405180910390fd5b8073ffffffffffffffffffffffffffffffffffffffff166108fc846006600301546104d19190611441565b9081150290604051600060405180830381858888f193505050501580156104fc573d6000803e3d6000fd5b5082600460008473ffffffffffffffffffffffffffffffffffffffff1673ffffffffffffffffffffffffffffffffffffffff1681526020019081526020016000208190555082600660010160008282546105569190611507565b925050819055507f82c28ddbad097bd1003a55cdb6788f38fbe3033fa91c813a8a00652716c0d45b83600360009054906101000a900473ffffffffffffffffffffffffffffffffffffffff166040516105b092919061159a565b60405180910390a1505050565b6000803373ffffffffffffffffffffffffffffffffffffffff1673ffffffffffffffffffffffffffffffffffffffff16815260200190815260200160002060009054906101000a900460ff1661061257600080fd5b848460066000019190610626929190610d7a565b508260066002018190555081600660010181905550806006600301819055507f44c99ce1ec0af6519400dc5641e20fd507c596f90096ffe116181619d7ab1a25336040516106749190611213565b60405180910390a15050505050565b600360009054906101000a900473ffffffffffffffffffffffffffffffffffffffff1673ffffffffffffffffffffffffffffffffffffffff163373ffffffffffffffffffffffffffffffffffffffff1614610713576040517f08c379a000000000000000000000000000000000000000000000000000000000815260040161070a90611635565b60405180910390fd5b60018060008373ffffffffffffffffffffffffffffffffffffffff1673ffffffffffffffffffffffffffffffffffffffff16815260200190815260200160002060006101000a81548160ff02191690831515021790555050565b60008060003373ffffffffffffffffffffffffffffffffffffffff1673ffffffffffffffffffffffffffffffffffffffff16815260200190815260200160002060009054906101000a900460ff166107c457600080fd5b602e83839050146107d457600080fd5b8282600591906107e5929190610d7a565b50600190507f4765ebd3305de5fb116e469dc918034c41b6352efaa277a933ecae4cf7360dff336040516108199190611213565b60405180910390a192915050565b600160003373ffffffffffffffffffffffffffffffffffffffff1673ffffffffffffffffffffffffffffffffffffffff16815260200190815260200160002060009054906101000a900460ff1661087d57600080fd5b600260003373ffffffffffffffffffffffffffffffffffffffff1673ffffffffffffffffffffffffffffffffffffffff16815260200190815260200160002060009054906101000a900460ff166108d357600080fd5b60003390506000600360009054906101000a900473ffffffffffffffffffffffffffffffffffffffff1690508073ffffffffffffffffffffffffffffffffffffffff168273ffffffffffffffffffffffffffffffffffffffff160361096d576040517f08c379a0000000000000000000000000000000000000000000000000000000008152600401610964906116c7565b60405180910390fd5b60066002015434146109b4576040517f08c379a00000000000000000000000000000000000000000000000000000000081526004016109ab90611733565b60405180910390fd5b8073ffffffffffffffffffffffffffffffffffffffff166108fc349081150290604051600060405180830381858888f193505050501580156109fa573d6000803e3d6000fd5b5081600360006101000a81548173ffffffffffffffffffffffffffffffffffffffff021916908373ffffffffffffffffffffffffffffffffffffffff1602179055507feb373dc4c684e4ae6135618e7fc15d654b409d8071dc8126b4a5d18ac86590db600360009054906101000a900473ffffffffffffffffffffffffffffffffffffffff16604051610a8d9190611753565b60405180910390a15050565b610aa1610e00565b6006604051806080016040529081600082018054610abe9061125d565b80601f0160208091040260200160405190810160405280929190818152602001828054610aea9061125d565b8015610b375780601f10610b0c57610100808354040283529160200191610b37565b820191906000526020600020905b815481529060010190602001808311610b1a57829003601f168201915b505050505081526020016001820154815260200160028201548152602001600382015481525050905090565b60046020528060005260406000206000915090505481565b600360009054906101000a900473ffffffffffffffffffffffffffffffffffffffff1673ffffffffffffffffffffffffffffffffffffffff163373ffffffffffffffffffffffffffffffffffffffff1614610c0b576040517f08c379a0000000000000000000000000000000000000000000000000000000008152600401610c0290611635565b60405180910390fd5b6001600260008373ffffffffffffffffffffffffffffffffffffffff1673ffffffffffffffffffffffffffffffffffffffff16815260200190815260200160002060006101000a81548160ff02191690831515021790555050565b6000600360009054906101000a900473ffffffffffffffffffffffffffffffffffffffff16905090565b600360009054906101000a900473ffffffffffffffffffffffffffffffffffffffff1673ffffffffffffffffffffffffffffffffffffffff163373ffffffffffffffffffffffffffffffffffffffff1614610d20576040517f08c379a0000000000000000000000000000000000000000000000000000000008152600401610d1790611635565b60405180910390fd5b60016000808373ffffffffffffffffffffffffffffffffffffffff1673ffffffffffffffffffffffffffffffffffffffff16815260200190815260200160002060006101000a81548160ff02191690831515021790555050565b828054610d869061125d565b90600052602060002090601f016020900481019282610da85760008555610def565b82601f10610dc157803560ff1916838001178555610def565b82800160010185558215610def579182015b82811115610dee578235825591602001919060010190610dd3565b5b509050610dfc9190610e28565b5090565b6040518060800160405280606081526020016000815260200160008152602001600081525090565b5b80821115610e41576000816000905550600101610e29565b5090565b600080fd5b600080fd5b600073ffffffffffffffffffffffffffffffffffffffff82169050919050565b6000610e7a82610e4f565b9050919050565b610e8a81610e6f565b8114610e9557600080fd5b50565b600081359050610ea781610e81565b92915050565b600060208284031215610ec357610ec2610e45565b5b6000610ed184828501610e98565b91505092915050565b6000819050919050565b610eed81610eda565b82525050565b6000602082019050610f086000830184610ee4565b92915050565b610f1781610eda565b8114610f2257600080fd5b50565b600081359050610f3481610f0e565b92915050565b600060208284031215610f5057610f4f610e45565b5b6000610f5e84828501610f25565b91505092915050565b600080fd5b600080fd5b600080fd5b60008083601f840112610f8c57610f8b610f67565b5b8235905067ffffffffffffffff811115610fa957610fa8610f6c565b5b602083019150836001820283011115610fc557610fc4610f71565b5b9250929050565b600080600080600060808688031215610fe857610fe7610e45565b5b600086013567ffffffffffffffff81111561100657611005610e4a565b5b61101288828901610f76565b9550955050602061102588828901610f25565b935050604061103688828901610f25565b925050606061104788828901610f25565b9150509295509295909350565b6000806020838503121561106b5761106a610e45565b5b600083013567ffffffffffffffff81111561108957611088610e4a565b5b61109585828601610f76565b92509250509250929050565b60008115159050919050565b6110b6816110a1565b82525050565b60006020820190506110d160008301846110ad565b92915050565b600081519050919050565b600082825260208201905092915050565b60005b838110156111115780820151818401526020810190506110f6565b83811115611120576000848401525b50505050565b6000601f19601f8301169050919050565b6000611142826110d7565b61114c81856110e2565b935061115c8185602086016110f3565b61116581611126565b840191505092915050565b61117981610eda565b82525050565b6000608083016000830151848203600086015261119c8282611137565b91505060208301516111b16020860182611170565b5060408301516111c46040860182611170565b5060608301516111d76060860182611170565b508091505092915050565b600060208201905081810360008301526111fc818461117f565b905092915050565b61120d81610e6f565b82525050565b60006020820190506112286000830184611204565b92915050565b7f4e487b7100000000000000000000000000000000000000000000000000000000600052602260045260246000fd5b6000600282049050600182168061127557607f821691505b6020821081036112885761128761122e565b5b50919050565b600082825260208201905092915050565b60008190508160005260206000209050919050565b600081546112c18161125d565b6112cb818661128e565b945060018216600081146112e657600181146112f85761132b565b60ff198316865260208601935061132b565b6113018561129f565b60005b8381101561132357815481890152600182019150602081019050611304565b808801955050505b50505092915050565b6000608082019050818103600083015261134e81876112b4565b905061135d6020830186610ee4565b61136a6040830185610ee4565b6113776060830184610ee4565b95945050505050565b7f5468652073706563696669656420616d6f756e7420657863656564732074686560008201527f206c696d69740000000000000000000000000000000000000000000000000000602082015250565b60006113dc60268361128e565b91506113e782611380565b604082019050919050565b6000602082019050818103600083015261140b816113cf565b9050919050565b7f4e487b7100000000000000000000000000000000000000000000000000000000600052601160045260246000fd5b600061144c82610eda565b915061145783610eda565b9250817fffffffffffffffffffffffffffffffffffffffffffffffffffffffffffffffff04831182151516156114905761148f611412565b5b828202905092915050565b7f696e636f7272656374207061796d656e74000000000000000000000000000000600082015250565b60006114d160118361128e565b91506114dc8261149b565b602082019050919050565b60006020820190508181036000830152611500816114c4565b9050919050565b600061151282610eda565b915061151d83610eda565b9250828210156115305761152f611412565b5b828203905092915050565b6000819050919050565b600061156061155b61155684610e4f565b61153b565b610e4f565b9050919050565b600061157282611545565b9050919050565b600061158482611567565b9050919050565b61159481611579565b82525050565b60006040820190506115af6000830185610ee4565b6115bc602083018461158b565b9392505050565b7f5468652073656e646572206973206e6f7420656c696769626c6520746f20727560008201527f6e20746869732066756e6374696f6e0000000000000000000000000000000000602082015250565b600061161f602f8361128e565b915061162a826115c3565b604082019050919050565b6000602082019050818103600083015261164e81611612565b9050919050565b7f546865206c6f7420697320616c7265616479206f776e6564206279207468652060008201527f66756e6374696f6e2063616c6c65720000000000000000000000000000000000602082015250565b60006116b1602f8361128e565b91506116bc82611655565b604082019050919050565b600060208201905081810360008301526116e0816116a4565b9050919050565b7f696e73756666696369656e74207061796d656e74000000000000000000000000600082015250565b600061171d60148361128e565b9150611728826116e7565b602082019050919050565b6000602082019050818103600083015261174c81611710565b9050919050565b6000602082019050611768600083018461158b565b9291505056fea2646970667358221220dbf3bf65fa35e295431de05835a383ace14953bf465f4fdc654a415200ed591464736f6c634300080d0033",
  "immutableReferences": {},
  "source": "pragma solidity >=0.4.22 <0.9.0;\npragma experimental ABIEncoderV2;\n//Creating a smartcontract for a Lot \n\ncontract Lot {\n    \n   \n    mapping(address => bool) authorizedManufacturers;\n    mapping(address => bool) authorizedDistributors;\n    mapping(address => bool) authorizedPharmacies;\n\n    address payable internal ownerID; //The eth address of the contract deployer\n    mapping(address => uint) public boxesPatient; //Mapping the purchased boxes to their corresonding patient ID\n    string internal IPFShash;\n\n    \n    //Creating a struct for the uploaded image to the IPFS\n    struct lotdata{\n        string lotName; // A variable that specifies the lot Name\n        uint numBoxes; //A variable for the number of boxes in a lot\n        uint lotPrice; //The price of selling the whole lot\n        uint boxPrice; //The price of selling one box of the lot to a patient\n    }\n    \n    lotdata internal lot;\n    \n    \n    //Defining events \n    event newOwner(address oldownerID,address newownerID);\n    event lotManufactured(address manufacturer);\n    event imageuploaded(address manufacturer);\n    event lotSale(string _lotName,uint _numBoxes, uint _lotPrice, uint _boxPrice);\n    event lotSold(address newownerID);\n    event boxesSold(uint _soldBoxes, address newownerID);\n    \n    //Defining Modifiers\n    \n    // This modifier makes sure that only the original owner executes the given function\n    modifier onlyOwner(){\n        require(msg.sender == ownerID, \"The sender is not eligible to run this function\");\n        _;\n    }\n    //Creating the contract constructor\n    \n    constructor() {\n       ownerID = payable(msg.sender);\n       emit newOwner(address(0), ownerID);\n    }\n    \n    //Defining Functions\n    \n    // View the current owner\n    function currentOwner() external view returns (address _currentOwner){\n        return ownerID;\n    }\n    \n    //Authoorization functions \n     function manufacturerAddress (address user) external onlyOwner {\n        authorizedManufacturers[user]=true;\n    } \n    \n     function distributorAddress (address user) external onlyOwner {\n        authorizedDistributors[user]=true;\n    } \n    \n     function pharmacyAddress (address user) external onlyOwner {\n        authorizedPharmacies[user]=true;\n    }\n    \n    //Modifiers\n    \n    modifier onlyManufacurer() {\n        require(authorizedManufacturers[msg.sender]);\n        _;\n    }\n    \n        modifier onlyDistributor() {\n        require(authorizedDistributors[msg.sender]);\n        _;\n    }\n    \n        modifier onlyPharmacy() {\n        require(authorizedPharmacies[msg.sender]);\n        _;\n    }\n    \n    //A function for the lot specification\n    \n    function lotDetails(string calldata _lotName, uint _lotPrice,uint _numBoxes, uint _boxPrice) external onlyManufacurer() {\n        \n        lot.lotName = _lotName;\n        lot.lotPrice = _lotPrice;\n        lot.numBoxes = _numBoxes;\n        lot.boxPrice = _boxPrice;\n        \n        //ownerID = msg.sender;\n        \n        emit lotManufactured(msg.sender);\n    }\n    \n    //Creating image upload function to store the image of the lot on IPFS\n    function  uploadLotImage (string calldata _ipfsHash) external onlyManufacurer()   returns (bool _success)  {\n            \n        require(bytes(_ipfsHash).length == 46);\n        IPFShash=_ipfsHash;\n        _success = true;\n        \n        emit imageuploaded(msg.sender);\n        \n    }\n    \n    //Creating a function to declare that the lot is for sale \n    \n    function grantSale() external onlyManufacurer() onlyDistributor(){\n        \n        emit lotSale(lot.lotName,lot.numBoxes,lot.lotPrice,lot.boxPrice);\n    \n    }    \n    //Creating a function to buy lot \n    \n    function buyLot () external onlyDistributor() onlyPharmacy() payable {\n        address buyer = payable(msg.sender);\n        address seller = payable(ownerID);\n        require(buyer != seller, \"The lot is already owned by the function caller\");\n        require(msg.value == lot.lotPrice, \"insufficient payment\"); //Checks if the buyer paid enough\n        //uint refundAmount = msg.value - lot.lotPrice; //if msg.value is more than enough then the reminder is refunded to the buyer\n        //msg.sender.transfer(refundAmount); // Transfers the excess amount to the buyer\n\n        payable(seller).transfer((msg.value)); //Transfering ether to the seller\n        ownerID = payable(buyer); //Upating the ownerID\n        \n        emit lotSold(ownerID); \n\n    \n        \n    }\n    \n    //Creating a function to sell boxes to patients\n    \n    function buyBox (uint numboxes2buy) external payable {\n        address buyer = payable(msg.sender);\n        address seller = payable(ownerID);\n        require(numboxes2buy <= lot.numBoxes, \"The specified amount exceeds the limit\");\n        require(msg.value == lot.boxPrice*numboxes2buy, \"incorrect payment\");\n        //uint refundAmount = msg.value - (lot.boxPrice*numboxes2buy);\n        //msg.sender.transfer(refundAmount);\n\n        payable(seller).transfer(lot.boxPrice*numboxes2buy); //Transfering ether to the seller\n        boxesPatient[buyer] = numboxes2buy;\n        lot.numBoxes -= numboxes2buy;\n\n        emit boxesSold(numboxes2buy, ownerID);\n    }\n\n    //Creating a function to view lot details\n\n    function viewLot () external view returns(lotdata memory) {\n        \n        return(lot);\n        \n    }\n    \n    //Creating a function to view how many boxes are owned by each patient\n    \n    function viewBox (address _account) external view returns(uint _boxesPatient){\n        return(boxesPatient[_account]);\n    }\n    \n    \n}",
  "sourcePath": "/Users/amirhoseintahmasbzadeh/Documents/solidity/truffle-project/contracts/Lotdrug.sol",
  "compiler": {
    "name": "solc",
    "version": "0.8.13+commit.abaa5c0e.Emscripten.clang"
  },
  "schemaVersion": "3.4.7",
  "updatedAt": "2022-06-21T21:01:22.445Z",
  "devdoc": {
    "kind": "dev",
    "methods": {},
    "version": 1
  },
  "userdoc": {
    "kind": "user",
    "methods": {},
    "version": 1
  }
}